{
  "_format": "hh3-artifact-1",
  "contractName": "Reputation",
  "sourceName": "contracts/Reputation.sol",
  "abi": [
    {
      "inputs": [
        {
          "internalType": "address",
          "name": "_marketplace",
          "type": "address"
        }
      ],
      "stateMutability": "nonpayable",
      "type": "constructor"
    },
    {
      "anonymous": false,
      "inputs": [
        {
          "indexed": true,
          "internalType": "uint256",
          "name": "jobId",
          "type": "uint256"
        },
        {
          "indexed": true,
          "internalType": "address",
          "name": "provider",
          "type": "address"
        },
        {
          "indexed": true,
          "internalType": "address",
          "name": "client",
          "type": "address"
        },
        {
          "indexed": false,
          "internalType": "uint8",
          "name": "score",
          "type": "uint8"
        },
        {
          "indexed": false,
          "internalType": "uint256",
          "name": "timestamp",
          "type": "uint256"
        }
      ],
      "name": "ProviderRated",
      "type": "event"
    },
    {
      "inputs": [
        {
          "internalType": "address",
          "name": "_provider",
          "type": "address"
        }
      ],
      "name": "getAverageRating",
      "outputs": [
        {
          "internalType": "uint256",
          "name": "",
          "type": "uint256"
        }
      ],
      "stateMutability": "view",
      "type": "function"
    },
    {
      "inputs": [
        {
          "internalType": "uint256",
          "name": "_jobId",
          "type": "uint256"
        }
      ],
      "name": "getJobRating",
      "outputs": [
        {
          "components": [
            {
              "internalType": "uint256",
              "name": "jobId",
              "type": "uint256"
            },
            {
              "internalType": "address",
              "name": "provider",
              "type": "address"
            },
            {
              "internalType": "address",
              "name": "client",
              "type": "address"
            },
            {
              "internalType": "uint8",
              "name": "score",
              "type": "uint8"
            },
            {
              "internalType": "string",
              "name": "review",
              "type": "string"
            },
            {
              "internalType": "uint256",
              "name": "timestamp",
              "type": "uint256"
            }
          ],
          "internalType": "struct Reputation.Rating",
          "name": "",
          "type": "tuple"
        }
      ],
      "stateMutability": "view",
      "type": "function"
    },
    {
      "inputs": [
        {
          "internalType": "address",
          "name": "_provider",
          "type": "address"
        }
      ],
      "name": "getProviderStats",
      "outputs": [
        {
          "components": [
            {
              "internalType": "uint256",
              "name": "totalScore",
              "type": "uint256"
            },
            {
              "internalType": "uint256",
              "name": "totalJobs",
              "type": "uint256"
            },
            {
              "internalType": "uint256",
              "name": "averageRating",
              "type": "uint256"
            }
          ],
          "internalType": "struct Reputation.ProviderStats",
          "name": "",
          "type": "tuple"
        }
      ],
      "stateMutability": "view",
      "type": "function"
    },
    {
      "inputs": [
        {
          "internalType": "address",
          "name": "_provider",
          "type": "address"
        }
      ],
      "name": "getTotalJobs",
      "outputs": [
        {
          "internalType": "uint256",
          "name": "",
          "type": "uint256"
        }
      ],
      "stateMutability": "view",
      "type": "function"
    },
    {
      "inputs": [
        {
          "internalType": "address",
          "name": "_provider",
          "type": "address"
        }
      ],
      "name": "getTotalScore",
      "outputs": [
        {
          "internalType": "uint256",
          "name": "",
          "type": "uint256"
        }
      ],
      "stateMutability": "view",
      "type": "function"
    },
    {
      "inputs": [
        {
          "internalType": "uint256",
          "name": "_jobId",
          "type": "uint256"
        }
      ],
      "name": "isJobRated",
      "outputs": [
        {
          "internalType": "bool",
          "name": "",
          "type": "bool"
        }
      ],
      "stateMutability": "view",
      "type": "function"
    },
    {
      "inputs": [
        {
          "internalType": "uint256",
          "name": "",
          "type": "uint256"
        }
      ],
      "name": "jobRated",
      "outputs": [
        {
          "internalType": "bool",
          "name": "",
          "type": "bool"
        }
      ],
      "stateMutability": "view",
      "type": "function"
    },
    {
      "inputs": [
        {
          "internalType": "uint256",
          "name": "",
          "type": "uint256"
        }
      ],
      "name": "jobRatings",
      "outputs": [
        {
          "internalType": "uint256",
          "name": "jobId",
          "type": "uint256"
        },
        {
          "internalType": "address",
          "name": "provider",
          "type": "address"
        },
        {
          "internalType": "address",
          "name": "client",
          "type": "address"
        },
        {
          "internalType": "uint8",
          "name": "score",
          "type": "uint8"
        },
        {
          "internalType": "string",
          "name": "review",
          "type": "string"
        },
        {
          "internalType": "uint256",
          "name": "timestamp",
          "type": "uint256"
        }
      ],
      "stateMutability": "view",
      "type": "function"
    },
    {
      "inputs": [],
      "name": "marketplace",
      "outputs": [
        {
          "internalType": "contract ISkillMarketplace",
          "name": "",
          "type": "address"
        }
      ],
      "stateMutability": "view",
      "type": "function"
    },
    {
      "inputs": [
        {
          "internalType": "uint256",
          "name": "_jobId",
          "type": "uint256"
        },
        {
          "internalType": "uint8",
          "name": "_score",
          "type": "uint8"
        },
        {
          "internalType": "string",
          "name": "_review",
          "type": "string"
        }
      ],
      "name": "rateProvider",
      "outputs": [],
      "stateMutability": "nonpayable",
      "type": "function"
    },
    {
      "inputs": [
        {
          "internalType": "address",
          "name": "",
          "type": "address"
        }
      ],
      "name": "totalJobs",
      "outputs": [
        {
          "internalType": "uint256",
          "name": "",
          "type": "uint256"
        }
      ],
      "stateMutability": "view",
      "type": "function"
    },
    {
      "inputs": [
        {
          "internalType": "address",
          "name": "",
          "type": "address"
        }
      ],
      "name": "totalScore",
      "outputs": [
        {
          "internalType": "uint256",
          "name": "",
          "type": "uint256"
        }
      ],
      "stateMutability": "view",
      "type": "function"
    }
  ],
  "bytecode": "0x6080604052348015600e575f5ffd5b50604051610f4b380380610f4b833981016040819052602b9160b7565b6001600160a01b03811660945760405162461bcd60e51b815260206004820152602760248201527f52657075746174696f6e3a20696e76616c6964206d61726b6574706c616365206044820152666164647265737360c81b606482015260840160405180910390fd5b5f80546001600160a01b0319166001600160a01b039290921691909117905560e2565b5f6020828403121560c6575f5ffd5b81516001600160a01b038116811460db575f5ffd5b9392505050565b610e5c806100ef5f395ff3fe608060405234801561000f575f5ffd5b50600436106100b1575f3560e01c8063abc8c7af1161006e578063abc8c7af14610199578063c8b67522146101c3578063cfa56e21146101d6578063d283b3c5146101f8578063e5e75b7d14610220578063fde7a26b14610255575f5ffd5b80631ed0f295146100b557806331105ba8146100de578063418fafad1461011457806347a5cbb11461014657806384eda6621461016557806384f8ab9e14610184575b5f5ffd5b6100c86100c33660046109b9565b61027a565b6040516100d591906109fe565b60405180910390f35b6101066100ec366004610a81565b6001600160a01b03165f9081526002602052604090205490565b6040519081526020016100d5565b6101366101223660046109b9565b5f9081526003602052604090205460ff1690565b60405190151581526020016100d5565b610106610154366004610a81565b60026020525f908152604090205481565b610106610173366004610a81565b60016020525f908152604090205481565b610197610192366004610af6565b610405565b005b5f546101ab906001600160a01b031681565b6040516001600160a01b0390911681526020016100d5565b6101066101d1366004610a81565b6107fb565b6101366101e43660046109b9565b60036020525f908152604090205460ff1681565b610106610206366004610a81565b6001600160a01b03165f9081526001602052604090205490565b61023361022e366004610a81565b61085f565b60408051825181526020808401519082015291810151908201526060016100d5565b6102686102633660046109b9565b6108e9565b6040516100d596959493929190610ba5565b6040805160c0810182525f808252602082018190529181018290526060808201839052608082015260a08101919091525f8281526003602052604090205460ff1661030c5760405162461bcd60e51b815260206004820152601960248201527f52657075746174696f6e3a206a6f62206e6f742072617465640000000000000060448201526064015b60405180910390fd5b5f82815260046020908152604091829020825160c0810184528154815260018201546001600160a01b0390811693820193909352600282015492831693810193909352600160a01b90910460ff16606083015260038101805460808401919061037490610bf2565b80601f01602080910402602001604051908101604052809291908181526020018280546103a090610bf2565b80156103eb5780601f106103c2576101008083540402835291602001916103eb565b820191905f5260205f20905b8154815290600101906020018083116103ce57829003601f168201915b505050505081526020016004820154815250509050919050565b8160018160ff161015801561041e575060058160ff1611155b61047d5760405162461bcd60e51b815260206004820152602a60248201527f52657075746174696f6e3a20726174696e67206d757374206265206265747765604482015269656e203120616e64203560b01b6064820152608401610303565b5f8481526003602052604090205460ff16156104db5760405162461bcd60e51b815260206004820152601d60248201527f52657075746174696f6e3a206a6f6220616c72656164792072617465640000006044820152606401610303565b5f805460405163180aedf360e01b8152600481018790526001600160a01b039091169063180aedf39060240160a060405180830381865afa158015610522573d5f5f3e3d5ffd5b505050506040513d601f19601f820116820180604052508101906105469190610c2a565b9050806060015160ff1660031461059f5760405162461bcd60e51b815260206004820152601860248201527f52657075746174696f6e3a206a6f62206e6f74207061696400000000000000006044820152606401610303565b80602001516001600160a01b0316336001600160a01b0316146106045760405162461bcd60e51b815260206004820181905260248201527f52657075746174696f6e3a206f6e6c7920636c69656e742063616e20726174656044820152606401610303565b80516001600160a01b031661065b5760405162461bcd60e51b815260206004820152601760248201527f52657075746174696f6e3a20696e76616c6964206a6f620000000000000000006044820152606401610303565b5f858152600360209081526040808320805460ff1916600190811790915584516001600160a01b031684529091528120805460ff8716929061069e908490610cd6565b909155505080516001600160a01b03165f9081526002602052604081208054600192906106cc908490610cd6565b90915550506040805160c08101825286815282516001600160a01b03908116602080840191825285810151831684860190815260ff808b1660608701908152608087018b81524260a08901525f8e81526004909552979093208651815593516001850180549187166001600160a01b031990921691909117905590516002840180549351909216600160a01b026001600160a81b031990931694169390931717909155915190919060038201906107839082610d35565b5060a0820151816004015590505080602001516001600160a01b0316815f01516001600160a01b0316867f6769f08eb2aab563b3aa6a112df7c3a6fd0da1f450e58012717cd6f2cefca90887426040516107ec92919060ff929092168252602082015260400190565b60405180910390a45050505050565b6001600160a01b0381165f90815260026020526040812054810361082057505f919050565b6001600160a01b0382165f9081526002602090815260408083205460019092529091205461084f906064610df0565b6108599190610e07565b92915050565b61088060405180606001604052805f81526020015f81526020015f81525090565b6001600160a01b0382165f9081526002602090815260408083205460019092528220549091826108b0575f6108c6565b826108bc836064610df0565b6108c69190610e07565b604080516060810182529384526020840194909452928201929092529392505050565b60046020525f9081526040902080546001820154600283015460038401805493946001600160a01b039384169493831693600160a01b90930460ff169290919061093290610bf2565b80601f016020809104026020016040519081016040528092919081815260200182805461095e90610bf2565b80156109a95780601f10610980576101008083540402835291602001916109a9565b820191905f5260205f20905b81548152906001019060200180831161098c57829003601f168201915b5050505050908060040154905086565b5f602082840312156109c9575f5ffd5b5035919050565b5f81518084528060208401602086015e5f602082860101526020601f19601f83011685010191505092915050565b602081528151602082015260018060a01b03602083015116604082015260018060a01b03604083015116606082015260ff60608301511660808201525f608083015160c060a0840152610a5460e08401826109d0565b905060a084015160c08401528091505092915050565b6001600160a01b0381168114610a7e575f5ffd5b50565b5f60208284031215610a91575f5ffd5b8135610a9c81610a6a565b9392505050565b60ff81168114610a7e575f5ffd5b634e487b7160e01b5f52604160045260245ffd5b604051601f8201601f1916810167ffffffffffffffff81118282101715610aee57610aee610ab1565b604052919050565b5f5f5f60608486031215610b08575f5ffd5b833592506020840135610b1a81610aa3565b9150604084013567ffffffffffffffff811115610b35575f5ffd5b8401601f81018613610b45575f5ffd5b803567ffffffffffffffff811115610b5f57610b5f610ab1565b610b72601f8201601f1916602001610ac5565b818152876020838501011115610b86575f5ffd5b816020840160208301375f602083830101528093505050509250925092565b8681526001600160a01b0386811660208301528516604082015260ff8416606082015260c0608082018190525f90610bdf908301856109d0565b90508260a0830152979650505050505050565b600181811c90821680610c0657607f821691505b602082108103610c2457634e487b7160e01b5f52602260045260245ffd5b50919050565b5f60a0828403128015610c3b575f5ffd5b5060405160a0810167ffffffffffffffff81118282101715610c5f57610c5f610ab1565b6040528251610c6d81610a6a565b81526020830151610c7d81610a6a565b6020820152604083810151908201526060830151610c9a81610aa3565b6060820152608083015164ffffffffff81168114610cb6575f5ffd5b60808201529392505050565b634e487b7160e01b5f52601160045260245ffd5b8082018082111561085957610859610cc2565b601f821115610d3057805f5260205f20601f840160051c81016020851015610d0e5750805b601f840160051c820191505b81811015610d2d575f8155600101610d1a565b50505b505050565b815167ffffffffffffffff811115610d4f57610d4f610ab1565b610d6381610d5d8454610bf2565b84610ce9565b6020601f821160018114610d95575f8315610d7e5750848201515b5f19600385901b1c1916600184901b178455610d2d565b5f84815260208120601f198516915b82811015610dc45787850151825560209485019460019092019101610da4565b5084821015610de157868401515f19600387901b60f8161c191681555b50505050600190811b01905550565b808202811582820484141761085957610859610cc2565b5f82610e2157634e487b7160e01b5f52601260045260245ffd5b50049056fea2646970667358221220a777b694ce5a7bc9a78086a07da4f45aab538639e029cd43deab537801341efe64736f6c634300081c0033",
  "linkReferences": {},
  "deployedLinkReferences": {},
  "immutableReferences": {},
  "inputSourceName": "project/contracts/Reputation.sol",
  "buildInfoId": "solc-0_8_28-ccabd880b8ecaafc6b6a8c4df1e72f44c64aa200"
}