{
  "_format": "hh3-artifact-1",
  "contractName": "SkillMarketplace",
  "sourceName": "contracts/SkillMarketplace.sol",
  "abi": [
    {
      "inputs": [
        {
          "internalType": "address",
          "name": "_platformWallet",
          "type": "address"
        }
      ],
      "stateMutability": "nonpayable",
      "type": "constructor"
    },
    {
      "anonymous": false,
      "inputs": [
        {
          "indexed": true,
          "internalType": "uint256",
          "name": "jobId",
          "type": "uint256"
        },
        {
          "indexed": false,
          "internalType": "uint256",
          "name": "timestamp",
          "type": "uint256"
        }
      ],
      "name": "JobAccepted",
      "type": "event"
    },
    {
      "anonymous": false,
      "inputs": [
        {
          "indexed": true,
          "internalType": "uint256",
          "name": "jobId",
          "type": "uint256"
        },
        {
          "indexed": false,
          "internalType": "uint256",
          "name": "timestamp",
          "type": "uint256"
        }
      ],
      "name": "JobCancelled",
      "type": "event"
    },
    {
      "anonymous": false,
      "inputs": [
        {
          "indexed": true,
          "internalType": "uint256",
          "name": "jobId",
          "type": "uint256"
        },
        {
          "indexed": false,
          "internalType": "uint256",
          "name": "timestamp",
          "type": "uint256"
        }
      ],
      "name": "JobCompleted",
      "type": "event"
    },
    {
      "anonymous": false,
      "inputs": [
        {
          "indexed": true,
          "internalType": "uint256",
          "name": "jobId",
          "type": "uint256"
        },
        {
          "indexed": true,
          "internalType": "address",
          "name": "provider",
          "type": "address"
        },
        {
          "indexed": true,
          "internalType": "address",
          "name": "client",
          "type": "address"
        },
        {
          "indexed": false,
          "internalType": "uint256",
          "name": "price",
          "type": "uint256"
        },
        {
          "indexed": false,
          "internalType": "uint256",
          "name": "timestamp",
          "type": "uint256"
        }
      ],
      "name": "JobCreated",
      "type": "event"
    },
    {
      "anonymous": false,
      "inputs": [
        {
          "indexed": true,
          "internalType": "uint256",
          "name": "jobId",
          "type": "uint256"
        },
        {
          "indexed": true,
          "internalType": "address",
          "name": "provider",
          "type": "address"
        },
        {
          "indexed": false,
          "internalType": "uint256",
          "name": "amount",
          "type": "uint256"
        },
        {
          "indexed": false,
          "internalType": "uint256",
          "name": "timestamp",
          "type": "uint256"
        }
      ],
      "name": "PaymentReleased",
      "type": "event"
    },
    {
      "anonymous": false,
      "inputs": [
        {
          "indexed": true,
          "internalType": "uint256",
          "name": "listingId",
          "type": "uint256"
        },
        {
          "indexed": false,
          "internalType": "uint256",
          "name": "timestamp",
          "type": "uint256"
        }
      ],
      "name": "ServiceDelisted",
      "type": "event"
    },
    {
      "anonymous": false,
      "inputs": [
        {
          "indexed": true,
          "internalType": "uint256",
          "name": "listingId",
          "type": "uint256"
        },
        {
          "indexed": true,
          "internalType": "address",
          "name": "provider",
          "type": "address"
        },
        {
          "indexed": false,
          "internalType": "uint256",
          "name": "price",
          "type": "uint256"
        },
        {
          "indexed": false,
          "internalType": "uint256",
          "name": "timestamp",
          "type": "uint256"
        }
      ],
      "name": "ServiceListed",
      "type": "event"
    },
    {
      "inputs": [
        {
          "internalType": "uint256",
          "name": "_jobId",
          "type": "uint256"
        }
      ],
      "name": "acceptJob",
      "outputs": [],
      "stateMutability": "nonpayable",
      "type": "function"
    },
    {
      "inputs": [
        {
          "internalType": "uint256",
          "name": "_jobId",
          "type": "uint256"
        }
      ],
      "name": "cancelJob",
      "outputs": [],
      "stateMutability": "nonpayable",
      "type": "function"
    },
    {
      "inputs": [
        {
          "internalType": "address",
          "name": "",
          "type": "address"
        },
        {
          "internalType": "uint256",
          "name": "",
          "type": "uint256"
        }
      ],
      "name": "clientJobs",
      "outputs": [
        {
          "internalType": "uint256",
          "name": "",
          "type": "uint256"
        }
      ],
      "stateMutability": "view",
      "type": "function"
    },
    {
      "inputs": [
        {
          "internalType": "string",
          "name": "_title",
          "type": "string"
        },
        {
          "internalType": "string",
          "name": "_description",
          "type": "string"
        },
        {
          "internalType": "uint256",
          "name": "_price",
          "type": "uint256"
        }
      ],
      "name": "createServiceListing",
      "outputs": [
        {
          "internalType": "uint256",
          "name": "",
          "type": "uint256"
        }
      ],
      "stateMutability": "nonpayable",
      "type": "function"
    },
    {
      "inputs": [
        {
          "internalType": "uint256",
          "name": "_listingId",
          "type": "uint256"
        }
      ],
      "name": "delistService",
      "outputs": [],
      "stateMutability": "nonpayable",
      "type": "function"
    },
    {
      "inputs": [
        {
          "internalType": "address",
          "name": "_client",
          "type": "address"
        }
      ],
      "name": "getClientJobs",
      "outputs": [
        {
          "internalType": "uint256[]",
          "name": "",
          "type": "uint256[]"
        }
      ],
      "stateMutability": "view",
      "type": "function"
    },
    {
      "inputs": [
        {
          "internalType": "uint256",
          "name": "_jobId",
          "type": "uint256"
        }
      ],
      "name": "getJob",
      "outputs": [
        {
          "components": [
            {
              "internalType": "address",
              "name": "provider",
              "type": "address"
            },
            {
              "internalType": "address",
              "name": "client",
              "type": "address"
            },
            {
              "internalType": "uint256",
              "name": "price",
              "type": "uint256"
            },
            {
              "internalType": "uint8",
              "name": "status",
              "type": "uint8"
            },
            {
              "internalType": "uint40",
              "name": "createdAt",
              "type": "uint40"
            }
          ],
          "internalType": "struct SkillMarketplace.Job",
          "name": "",
          "type": "tuple"
        }
      ],
      "stateMutability": "view",
      "type": "function"
    },
    {
      "inputs": [
        {
          "internalType": "uint256",
          "name": "_jobId",
          "type": "uint256"
        }
      ],
      "name": "getJobDescription",
      "outputs": [
        {
          "internalType": "string",
          "name": "",
          "type": "string"
        }
      ],
      "stateMutability": "view",
      "type": "function"
    },
    {
      "inputs": [
        {
          "internalType": "uint256",
          "name": "_listingId",
          "type": "uint256"
        }
      ],
      "name": "getListing",
      "outputs": [
        {
          "internalType": "string",
          "name": "title",
          "type": "string"
        },
        {
          "internalType": "string",
          "name": "description",
          "type": "string"
        },
        {
          "components": [
            {
              "internalType": "address",
              "name": "provider",
              "type": "address"
            },
            {
              "internalType": "uint256",
              "name": "price",
              "type": "uint256"
            },
            {
              "internalType": "bool",
              "name": "isActive",
              "type": "bool"
            }
          ],
          "internalType": "struct SkillMarketplace.ServiceListing",
          "name": "listing",
          "type": "tuple"
        }
      ],
      "stateMutability": "view",
      "type": "function"
    },
    {
      "inputs": [
        {
          "internalType": "address",
          "name": "_provider",
          "type": "address"
        }
      ],
      "name": "getProviderJobs",
      "outputs": [
        {
          "internalType": "uint256[]",
          "name": "",
          "type": "uint256[]"
        }
      ],
      "stateMutability": "view",
      "type": "function"
    },
    {
      "inputs": [
        {
          "internalType": "address",
          "name": "_provider",
          "type": "address"
        }
      ],
      "name": "getProviderListings",
      "outputs": [
        {
          "internalType": "uint256[]",
          "name": "",
          "type": "uint256[]"
        }
      ],
      "stateMutability": "view",
      "type": "function"
    },
    {
      "inputs": [
        {
          "internalType": "address",
          "name": "_provider",
          "type": "address"
        },
        {
          "internalType": "string",
          "name": "_description",
          "type": "string"
        }
      ],
      "name": "hireService",
      "outputs": [
        {
          "internalType": "uint256",
          "name": "",
          "type": "uint256"
        }
      ],
      "stateMutability": "payable",
      "type": "function"
    },
    {
      "inputs": [
        {
          "internalType": "uint256",
          "name": "",
          "type": "uint256"
        }
      ],
      "name": "jobDescriptions",
      "outputs": [
        {
          "internalType": "string",
          "name": "",
          "type": "string"
        }
      ],
      "stateMutability": "view",
      "type": "function"
    },
    {
      "inputs": [],
      "name": "jobIdCounter",
      "outputs": [
        {
          "internalType": "uint256",
          "name": "",
          "type": "uint256"
        }
      ],
      "stateMutability": "view",
      "type": "function"
    },
    {
      "inputs": [
        {
          "internalType": "uint256",
          "name": "",
          "type": "uint256"
        }
      ],
      "name": "jobs",
      "outputs": [
        {
          "internalType": "address",
          "name": "provider",
          "type": "address"
        },
        {
          "internalType": "address",
          "name": "client",
          "type": "address"
        },
        {
          "internalType": "uint256",
          "name": "price",
          "type": "uint256"
        },
        {
          "internalType": "uint8",
          "name": "status",
          "type": "uint8"
        },
        {
          "internalType": "uint40",
          "name": "createdAt",
          "type": "uint40"
        }
      ],
      "stateMutability": "view",
      "type": "function"
    },
    {
      "inputs": [
        {
          "internalType": "uint256",
          "name": "",
          "type": "uint256"
        }
      ],
      "name": "listingDescriptions",
      "outputs": [
        {
          "internalType": "string",
          "name": "",
          "type": "string"
        }
      ],
      "stateMutability": "view",
      "type": "function"
    },
    {
      "inputs": [],
      "name": "listingIdCounter",
      "outputs": [
        {
          "internalType": "uint256",
          "name": "",
          "type": "uint256"
        }
      ],
      "stateMutability": "view",
      "type": "function"
    },
    {
      "inputs": [
        {
          "internalType": "uint256",
          "name": "",
          "type": "uint256"
        }
      ],
      "name": "listingTitles",
      "outputs": [
        {
          "internalType": "string",
          "name": "",
          "type": "string"
        }
      ],
      "stateMutability": "view",
      "type": "function"
    },
    {
      "inputs": [
        {
          "internalType": "uint256",
          "name": "_jobId",
          "type": "uint256"
        }
      ],
      "name": "markJobComplete",
      "outputs": [],
      "stateMutability": "nonpayable",
      "type": "function"
    },
    {
      "inputs": [],
      "name": "platformFeePercent",
      "outputs": [
        {
          "internalType": "uint256",
          "name": "",
          "type": "uint256"
        }
      ],
      "stateMutability": "view",
      "type": "function"
    },
    {
      "inputs": [],
      "name": "platformWallet",
      "outputs": [
        {
          "internalType": "address",
          "name": "",
          "type": "address"
        }
      ],
      "stateMutability": "view",
      "type": "function"
    },
    {
      "inputs": [
        {
          "internalType": "address",
          "name": "",
          "type": "address"
        },
        {
          "internalType": "uint256",
          "name": "",
          "type": "uint256"
        }
      ],
      "name": "providerJobs",
      "outputs": [
        {
          "internalType": "uint256",
          "name": "",
          "type": "uint256"
        }
      ],
      "stateMutability": "view",
      "type": "function"
    },
    {
      "inputs": [
        {
          "internalType": "address",
          "name": "",
          "type": "address"
        },
        {
          "internalType": "uint256",
          "name": "",
          "type": "uint256"
        }
      ],
      "name": "providerListings",
      "outputs": [
        {
          "internalType": "uint256",
          "name": "",
          "type": "uint256"
        }
      ],
      "stateMutability": "view",
      "type": "function"
    },
    {
      "inputs": [
        {
          "internalType": "uint256",
          "name": "_jobId",
          "type": "uint256"
        }
      ],
      "name": "releasePayment",
      "outputs": [],
      "stateMutability": "nonpayable",
      "type": "function"
    },
    {
      "inputs": [
        {
          "internalType": "uint256",
          "name": "",
          "type": "uint256"
        }
      ],
      "name": "serviceListings",
      "outputs": [
        {
          "internalType": "address",
          "name": "provider",
          "type": "address"
        },
        {
          "internalType": "uint256",
          "name": "price",
          "type": "uint256"
        },
        {
          "internalType": "bool",
          "name": "isActive",
          "type": "bool"
        }
      ],
      "stateMutability": "view",
      "type": "function"
    }
  ],
  "bytecode": "0x6080604052600280553480156012575f5ffd5b50604051611be5380380611be5833981016040819052602f9160ac565b6001600160a01b03811660885760405162461bcd60e51b815260206004820152601760248201527f496e76616c696420706c6174666f726d2077616c6c6574000000000000000000604482015260640160405180910390fd5b600380546001600160a01b0319166001600160a01b039290921691909117905560d7565b5f6020828403121560bb575f5ffd5b81516001600160a01b038116811460d0575f5ffd5b9392505050565b611b01806100e45f395ff3fe608060405260043610610160575f3560e01c806388685cd9116100cd578063bf22c45711610087578063d038e34d11610062578063d038e34d146104d8578063e4c8cce114610546578063f2640b5e14610565578063fa2af9da14610584575f5ffd5b8063bf22c45714610426578063c47240111461049a578063cf2646c2146104b9575f5ffd5b806388685cd9146103825780638c639a85146103a15780638facd859146103b6578063927a831b146103d5578063acb02504146103f4578063ba56981a14610413575f5ffd5b80631901ac831161011e5780631901ac83146102c55780631dffa3dc146102e4578063231701e91461030357806336ce26f714610318578063628dd5b11461033757806363b2f3c914610363575f5ffd5b80623b2b701461016457806308c6c875146101995780630ca1a55d146101ba5780630f5a11ca146101d9578063107a274a146101fb578063180aedf314610229575b5f5ffd5b34801561016f575f5ffd5b5061018361017e366004611649565b6105bb565b604051610190919061168e565b60405180910390f35b3480156101a4575f5ffd5b506101b86101b3366004611649565b610652565b005b3480156101c5575f5ffd5b506101836101d4366004611649565b610752565b3480156101e4575f5ffd5b506101ed5f5481565b604051908152602001610190565b348015610206575f5ffd5b5061021a610215366004611649565b61076a565b604051610190939291906116a7565b348015610234575f5ffd5b50610288610243366004611649565b60046020525f908152604090208054600182015460028301546003909301546001600160a01b0392831693919092169160ff81169064ffffffffff6101009091041685565b604080516001600160a01b0396871681529590941660208601529284019190915260ff16606083015264ffffffffff16608082015260a001610190565b3480156102d0575f5ffd5b506101b86102df366004611649565b6108f8565b3480156102ef575f5ffd5b506101b86102fe366004611649565b610a17565b34801561030e575f5ffd5b506101ed60015481565b348015610323575f5ffd5b506101ed610332366004611716565b610bd7565b348015610342575f5ffd5b5061035661035136600461173e565b610c02565b6040516101909190611757565b34801561036e575f5ffd5b506101b861037d366004611649565b610c6b565b34801561038d575f5ffd5b506101b861039c366004611649565b610d79565b3480156103ac575f5ffd5b506101ed60025481565b3480156103c1575f5ffd5b506101ed6103d0366004611716565b611019565b3480156103e0575f5ffd5b506101ed6103ef366004611716565b611032565b3480156103ff575f5ffd5b5061018361040e366004611649565b61104b565b6101ed610421366004611838565b6110e0565b348015610431575f5ffd5b50610445610440366004611649565b611318565b604051610190919081516001600160a01b039081168252602080840151909116908201526040808301519082015260608083015160ff169082015260809182015164ffffffffff169181019190915260a00190565b3480156104a5575f5ffd5b506101836104b4366004611649565b6113cd565b3480156104c4575f5ffd5b506103566104d336600461173e565b6113e5565b3480156104e3575f5ffd5b5061051f6104f2366004611649565b60056020525f90815260409020805460018201546002909201546001600160a01b03909116919060ff1683565b604080516001600160a01b0390941684526020840192909252151590820152606001610190565b348015610551575f5ffd5b506101ed610560366004611883565b61144c565b348015610570575f5ffd5b5061035661057f36600461173e565b6115e2565b34801561058f575f5ffd5b506003546105a3906001600160a01b031681565b6040516001600160a01b039091168152602001610190565b60066020525f9081526040902080546105d3906118f1565b80601f01602080910402602001604051908101604052809291908181526020018280546105ff906118f1565b801561064a5780601f106106215761010080835404028352916020019161064a565b820191905f5260205f20905b81548152906001019060200180831161062d57829003601f168201915b505050505081565b5f818152600560205260409020546001600160a01b031633146106a85760405162461bcd60e51b81526020600482015260096024820152682737ba1037bbb732b960b91b60448201526064015b60405180910390fd5b5f8181526005602052604090206002015460ff166106fb5760405162461bcd60e51b815260206004820152601060248201526f105b1c9958591e4819195b1a5cdd195960821b604482015260640161069f565b5f8181526005602052604090819020600201805460ff191690555181907f9522805c3b4694e0093b32d6450772bea38f3ed306c747cae54641256022fd62906107479042815260200190565b60405180910390a250565b60086020525f9081526040902080546105d3906118f1565b60408051606081810183525f808352602083018190529282019290925281905f8481526007602090815260408083206008835281842060059093529220825483906107b4906118f1565b80601f01602080910402602001604051908101604052809291908181526020018280546107e0906118f1565b801561082b5780601f106108025761010080835404028352916020019161082b565b820191905f5260205f20905b81548152906001019060200180831161080e57829003601f168201915b5050505050925081805461083e906118f1565b80601f016020809104026020016040519081016040528092919081815260200182805461086a906118f1565b80156108b55780601f1061088c576101008083540402835291602001916108b5565b820191905f5260205f20905b81548152906001019060200180831161089857829003601f168201915b50506040805160608101825286546001600160a01b031681526001870154602082015260029096015460ff16151590860152509499919850919650945050505050565b805f5481106109195760405162461bcd60e51b815260040161069f90611923565b5f8281526004602052604090205482906001600160a01b0316331461096f5760405162461bcd60e51b815260206004820152600c60248201526b2737ba10383937bb34b232b960a11b604482015260640161069f565b5f838152600460205260409020600381015460ff166001146109c65760405162461bcd60e51b815260206004820152601060248201526f129bd8881b9bdd081858d8d95c1d195960821b604482015260640161069f565b60038101805460ff1916600217905560405184907f152d31e943f2d79d470375c901f5a6cfb7d465ee4969db651885948d3b6015b890610a099042815260200190565b60405180910390a250505050565b805f548110610a385760405162461bcd60e51b815260040161069f90611923565b5f8281526004602052604090206001015482906001600160a01b03163314610a8f5760405162461bcd60e51b815260206004820152600a602482015269139bdd0818db1a595b9d60b21b604482015260640161069f565b5f838152600460205260409020600381015460ff1615610af15760405162461bcd60e51b815260206004820152601a60248201527f43616e6e6f742063616e63656c206163636570746564206a6f62000000000000604482015260640161069f565b60038101805460ff19166004179055600181015460028201546040515f926001600160a01b031691908381818185875af1925050503d805f8114610b50576040519150601f19603f3d011682016040523d82523d5f602084013e610b55565b606091505b5050905080610b965760405162461bcd60e51b815260206004820152600d60248201526c1499599d5b990819985a5b1959609a1b604482015260640161069f565b847f7e3805011acb8d49832d7ef085841e251e66267c06e54e0ac20cb09f3c696d3b42604051610bc891815260200190565b60405180910390a25050505050565b600b602052815f5260405f208181548110610bf0575f80fd5b905f5260205f20015f91509150505481565b6001600160a01b0381165f908152600b6020908152604091829020805483518184028101840190945280845260609392830182828015610c5f57602002820191905f5260205f20905b815481526020019060010190808311610c4b575b50505050509050919050565b805f548110610c8c5760405162461bcd60e51b815260040161069f90611923565b5f8281526004602052604090205482906001600160a01b03163314610ce25760405162461bcd60e51b815260206004820152600c60248201526b2737ba10383937bb34b232b960a11b604482015260640161069f565b5f838152600460205260409020600381015460ff1615610d365760405162461bcd60e51b815260206004820152600f60248201526e4a6f62206e6f742070656e64696e6760881b604482015260640161069f565b60038101805460ff1916600117905560405184907f7c6da6faa324bfd2dd153353fbe6a4a618fe1e64e2172f3df4cf46218ea67e0d90610a099042815260200190565b805f548110610d9a5760405162461bcd60e51b815260040161069f90611923565b5f8281526004602052604090206001015482906001600160a01b03163314610df15760405162461bcd60e51b815260206004820152600a602482015269139bdd0818db1a595b9d60b21b604482015260640161069f565b5f838152600460205260409020600381015460ff16600214610e495760405162461bcd60e51b8152602060048201526011602482015270129bd8881b9bdd0818dbdb5c1b195d1959607a1b604482015260640161069f565b6003818101805460ff1916909117905560028054908201545f91606491610e709190611963565b610e7a919061197a565b90505f818360020154610e8d9190611999565b83546040519192505f916001600160a01b039091169083908381818185875af1925050503d805f8114610edb576040519150601f19603f3d011682016040523d82523d5f602084013e610ee0565b606091505b5050905080610f315760405162461bcd60e51b815260206004820152601760248201527f50726f7669646572207061796d656e74206661696c6564000000000000000000604482015260640161069f565b6003546040515f916001600160a01b03169085908381818185875af1925050503d805f8114610f7b576040519150601f19603f3d011682016040523d82523d5f602084013e610f80565b606091505b5050905080610fc75760405162461bcd60e51b8152602060048201526013602482015272141b185d199bdc9b481999594819985a5b1959606a1b604482015260640161069f565b8454604080518581524260208201526001600160a01b03909216918a917f8cdc8dc08e54a4e57f52077ecf1b4c508758513439cae2aa325dcc85b922fca8910160405180910390a35050505050505050565b600a602052815f5260405f208181548110610bf0575f80fd5b6009602052815f5260405f208181548110610bf0575f80fd5b5f818152600660205260409020805460609190611067906118f1565b80601f0160208091040260200160405190810160405280929190818152602001828054611093906118f1565b8015610c5f5780601f106110b557610100808354040283529160200191610c5f565b820191905f5260205f20905b8154815290600101906020018083116110c15750939695505050505050565b5f6001600160a01b03831661112a5760405162461bcd60e51b815260206004820152601060248201526f24b73b30b634b210383937bb34b232b960811b604482015260640161069f565b336001600160a01b038416036111795760405162461bcd60e51b815260206004820152601460248201527321b0b73737ba103434b932903cb7bab939b2b63360611b604482015260640161069f565b5f34116111bb5760405162461bcd60e51b815260206004820152601060248201526f14185e5b595b9d081c995c5d5a5c995960821b604482015260640161069f565b5f805481806111c9836119ac565b909155506040805160a0810182526001600160a01b038088168252336020808401918252348486019081525f6060860181815264ffffffffff428116608089019081528a845260048652898420985189549089166001600160a01b0319918216178a55965160018a018054919099169716969096179096559151600287015590516003909501805493519094166101000265ffffffffffff1990931660ff95909516949094179190911790915560069052209091506112888482611a10565b506001600160a01b0384165f8181526009602090815260408083208054600180820183559185528385200186905533808552600a845282852080549283018155855293839020018590558051348152429281019290925291929184917f9f708ef692516d5076ae0cb779688ef01c75caad86fb2e2fa1b80612ee7e64a4910160405180910390a490505b92915050565b6040805160a0810182525f80825260208201819052918101829052606081018290526080810191909152815f5481106113635760405162461bcd60e51b815260040161069f90611923565b5f83815260046020908152604091829020825160a08101845281546001600160a01b0390811682526001830154169281019290925260028101549282019290925260039091015460ff81166060830152610100900464ffffffffff16608082015291505b50919050565b60076020525f9081526040902080546105d3906118f1565b6001600160a01b0381165f908152600a6020908152604091829020805483518184028101840190945280845260609392830182828015610c5f57602002820191905f5260205f2090815481526020019060010190808311610c4b5750505050509050919050565b5f5f84511161148e5760405162461bcd60e51b815260206004820152600e60248201526d151a5d1b19481c995c5d5a5c995960921b604482015260640161069f565b5f82116114d15760405162461bcd60e51b815260206004820152601160248201527005072696365206d757374206265203e203607c1b604482015260640161069f565b600180545f91826114e1836119ac565b9091555060408051606081018252338152602080820187815260018385018181525f87815260058552868120955186546001600160a01b0319166001600160a01b03909116178655925191850191909155516002909301805460ff191693151593909317909255600790522090915061155a8682611a10565b505f8181526008602052604090206115728582611a10565b50335f818152600b60209081526040808320805460018101825590845291909220018390555182907f7dcc3d3bb6c233d9670d1b85c0d9985f7aa84274ad03334d584ed40408b4c5d9906115d29087904290918252602082015260400190565b60405180910390a3949350505050565b6001600160a01b0381165f90815260096020908152604091829020805483518184028101840190945280845260609392830182828015610c5f57602002820191905f5260205f2090815481526020019060010190808311610c4b5750505050509050919050565b5f60208284031215611659575f5ffd5b5035919050565b5f81518084528060208401602086015e5f602082860101526020601f19601f83011685010191505092915050565b602081525f6116a06020830184611660565b9392505050565b60a081525f6116b960a0830186611660565b82810360208401526116cb8186611660565b91505060018060a01b03835116604083015260208301516060830152604083015115156080830152949350505050565b80356001600160a01b0381168114611711575f5ffd5b919050565b5f5f60408385031215611727575f5ffd5b611730836116fb565b946020939093013593505050565b5f6020828403121561174e575f5ffd5b6116a0826116fb565b602080825282518282018190525f918401906040840190835b8181101561178e578351835260209384019390920191600101611770565b509095945050505050565b634e487b7160e01b5f52604160045260245ffd5b5f82601f8301126117bc575f5ffd5b813567ffffffffffffffff8111156117d6576117d6611799565b604051601f8201601f19908116603f0116810167ffffffffffffffff8111828210171561180557611805611799565b60405281815283820160200185101561181c575f5ffd5b816020850160208301375f918101602001919091529392505050565b5f5f60408385031215611849575f5ffd5b611852836116fb565b9150602083013567ffffffffffffffff81111561186d575f5ffd5b611879858286016117ad565b9150509250929050565b5f5f5f60608486031215611895575f5ffd5b833567ffffffffffffffff8111156118ab575f5ffd5b6118b7868287016117ad565b935050602084013567ffffffffffffffff8111156118d3575f5ffd5b6118df868287016117ad565b93969395505050506040919091013590565b600181811c9082168061190557607f821691505b6020821081036113c757634e487b7160e01b5f52602260045260245ffd5b602080825260129082015271129bd888191bd95cc81b9bdd08195e1a5cdd60721b604082015260600190565b634e487b7160e01b5f52601160045260245ffd5b80820281158282048414176113125761131261194f565b5f8261199457634e487b7160e01b5f52601260045260245ffd5b500490565b818103818111156113125761131261194f565b5f600182016119bd576119bd61194f565b5060010190565b601f821115611a0b57805f5260205f20601f840160051c810160208510156119e95750805b601f840160051c820191505b81811015611a08575f81556001016119f5565b50505b505050565b815167ffffffffffffffff811115611a2a57611a2a611799565b611a3e81611a3884546118f1565b846119c4565b6020601f821160018114611a70575f8315611a595750848201515b5f19600385901b1c1916600184901b178455611a08565b5f84815260208120601f198516915b82811015611a9f5787850151825560209485019460019092019101611a7f565b5084821015611abc57868401515f19600387901b60f8161c191681555b50505050600190811b0190555056fea26469706673582212200c4333e1877c807a3b156a539775cab4d6b329d50d231c03fb0b548fe745fe4364736f6c634300081c0033",
  "linkReferences": {},
  "deployedLinkReferences": {},
  "immutableReferences": {},
  "inputSourceName": "project/contracts/SkillMarketplace.sol",
  "buildInfoId": "solc-0_8_28-02e0adaf572b9251245b0dcd797cdba6bf094499"
}