{
  "_format": "hh3-artifact-1",
  "contractName": "SkillCredentialNFT",
  "sourceName": "contracts/SkillCredentialNFT.sol",
  "abi": [
    {
      "inputs": [
        {
          "internalType": "address",
          "name": "_issuerRegistry",
          "type": "address"
        },
        {
          "internalType": "bool",
          "name": "_isSoulbound",
          "type": "bool"
        }
      ],
      "stateMutability": "nonpayable",
      "type": "constructor"
    },
    {
      "inputs": [
        {
          "internalType": "address",
          "name": "sender",
          "type": "address"
        },
        {
          "internalType": "uint256",
          "name": "tokenId",
          "type": "uint256"
        },
        {
          "internalType": "address",
          "name": "owner",
          "type": "address"
        }
      ],
      "name": "ERC721IncorrectOwner",
      "type": "error"
    },
    {
      "inputs": [
        {
          "internalType": "address",
          "name": "operator",
          "type": "address"
        },
        {
          "internalType": "uint256",
          "name": "tokenId",
          "type": "uint256"
        }
      ],
      "name": "ERC721InsufficientApproval",
      "type": "error"
    },
    {
      "inputs": [
        {
          "internalType": "address",
          "name": "approver",
          "type": "address"
        }
      ],
      "name": "ERC721InvalidApprover",
      "type": "error"
    },
    {
      "inputs": [
        {
          "internalType": "address",
          "name": "operator",
          "type": "address"
        }
      ],
      "name": "ERC721InvalidOperator",
      "type": "error"
    },
    {
      "inputs": [
        {
          "internalType": "address",
          "name": "owner",
          "type": "address"
        }
      ],
      "name": "ERC721InvalidOwner",
      "type": "error"
    },
    {
      "inputs": [
        {
          "internalType": "address",
          "name": "receiver",
          "type": "address"
        }
      ],
      "name": "ERC721InvalidReceiver",
      "type": "error"
    },
    {
      "inputs": [
        {
          "internalType": "address",
          "name": "sender",
          "type": "address"
        }
      ],
      "name": "ERC721InvalidSender",
      "type": "error"
    },
    {
      "inputs": [
        {
          "internalType": "uint256",
          "name": "tokenId",
          "type": "uint256"
        }
      ],
      "name": "ERC721NonexistentToken",
      "type": "error"
    },
    {
      "anonymous": false,
      "inputs": [
        {
          "indexed": true,
          "internalType": "address",
          "name": "owner",
          "type": "address"
        },
        {
          "indexed": true,
          "internalType": "address",
          "name": "approved",
          "type": "address"
        },
        {
          "indexed": true,
          "internalType": "uint256",
          "name": "tokenId",
          "type": "uint256"
        }
      ],
      "name": "Approval",
      "type": "event"
    },
    {
      "anonymous": false,
      "inputs": [
        {
          "indexed": true,
          "internalType": "address",
          "name": "owner",
          "type": "address"
        },
        {
          "indexed": true,
          "internalType": "address",
          "name": "operator",
          "type": "address"
        },
        {
          "indexed": false,
          "internalType": "bool",
          "name": "approved",
          "type": "bool"
        }
      ],
      "name": "ApprovalForAll",
      "type": "event"
    },
    {
      "anonymous": false,
      "inputs": [
        {
          "indexed": false,
          "internalType": "uint256",
          "name": "_fromTokenId",
          "type": "uint256"
        },
        {
          "indexed": false,
          "internalType": "uint256",
          "name": "_toTokenId",
          "type": "uint256"
        }
      ],
      "name": "BatchMetadataUpdate",
      "type": "event"
    },
    {
      "anonymous": false,
      "inputs": [
        {
          "indexed": true,
          "internalType": "uint256",
          "name": "tokenId",
          "type": "uint256"
        },
        {
          "indexed": true,
          "internalType": "address",
          "name": "holder",
          "type": "address"
        },
        {
          "indexed": true,
          "internalType": "address",
          "name": "issuer",
          "type": "address"
        },
        {
          "indexed": false,
          "internalType": "string",
          "name": "skillName",
          "type": "string"
        },
        {
          "indexed": false,
          "internalType": "uint256",
          "name": "timestamp",
          "type": "uint256"
        }
      ],
      "name": "CredentialMinted",
      "type": "event"
    },
    {
      "anonymous": false,
      "inputs": [
        {
          "indexed": false,
          "internalType": "uint256",
          "name": "_tokenId",
          "type": "uint256"
        }
      ],
      "name": "MetadataUpdate",
      "type": "event"
    },
    {
      "anonymous": false,
      "inputs": [
        {
          "indexed": false,
          "internalType": "bool",
          "name": "isSoulbound",
          "type": "bool"
        }
      ],
      "name": "SoulboundStatusChanged",
      "type": "event"
    },
    {
      "anonymous": false,
      "inputs": [
        {
          "indexed": true,
          "internalType": "address",
          "name": "from",
          "type": "address"
        },
        {
          "indexed": true,
          "internalType": "address",
          "name": "to",
          "type": "address"
        },
        {
          "indexed": true,
          "internalType": "uint256",
          "name": "tokenId",
          "type": "uint256"
        }
      ],
      "name": "Transfer",
      "type": "event"
    },
    {
      "inputs": [
        {
          "internalType": "address",
          "name": "to",
          "type": "address"
        },
        {
          "internalType": "uint256",
          "name": "tokenId",
          "type": "uint256"
        }
      ],
      "name": "approve",
      "outputs": [],
      "stateMutability": "nonpayable",
      "type": "function"
    },
    {
      "inputs": [
        {
          "internalType": "address",
          "name": "owner",
          "type": "address"
        }
      ],
      "name": "balanceOf",
      "outputs": [
        {
          "internalType": "uint256",
          "name": "",
          "type": "uint256"
        }
      ],
      "stateMutability": "view",
      "type": "function"
    },
    {
      "inputs": [
        {
          "internalType": "uint256",
          "name": "",
          "type": "uint256"
        }
      ],
      "name": "credentials",
      "outputs": [
        {
          "internalType": "string",
          "name": "skillName",
          "type": "string"
        },
        {
          "internalType": "address",
          "name": "issuer",
          "type": "address"
        },
        {
          "internalType": "uint256",
          "name": "issuedAt",
          "type": "uint256"
        },
        {
          "internalType": "string",
          "name": "metadataHash",
          "type": "string"
        }
      ],
      "stateMutability": "view",
      "type": "function"
    },
    {
      "inputs": [
        {
          "internalType": "uint256",
          "name": "tokenId",
          "type": "uint256"
        }
      ],
      "name": "getApproved",
      "outputs": [
        {
          "internalType": "address",
          "name": "",
          "type": "address"
        }
      ],
      "stateMutability": "view",
      "type": "function"
    },
    {
      "inputs": [
        {
          "internalType": "uint256",
          "name": "_tokenId",
          "type": "uint256"
        }
      ],
      "name": "getCredential",
      "outputs": [
        {
          "components": [
            {
              "internalType": "string",
              "name": "skillName",
              "type": "string"
            },
            {
              "internalType": "address",
              "name": "issuer",
              "type": "address"
            },
            {
              "internalType": "uint256",
              "name": "issuedAt",
              "type": "uint256"
            },
            {
              "internalType": "string",
              "name": "metadataHash",
              "type": "string"
            }
          ],
          "internalType": "struct SkillCredentialNFT.Skill",
          "name": "",
          "type": "tuple"
        }
      ],
      "stateMutability": "view",
      "type": "function"
    },
    {
      "inputs": [
        {
          "internalType": "address",
          "name": "_holder",
          "type": "address"
        }
      ],
      "name": "getHolderCredentials",
      "outputs": [
        {
          "internalType": "uint256[]",
          "name": "",
          "type": "uint256[]"
        }
      ],
      "stateMutability": "view",
      "type": "function"
    },
    {
      "inputs": [
        {
          "internalType": "address",
          "name": "",
          "type": "address"
        },
        {
          "internalType": "uint256",
          "name": "",
          "type": "uint256"
        }
      ],
      "name": "holderCredentials",
      "outputs": [
        {
          "internalType": "uint256",
          "name": "",
          "type": "uint256"
        }
      ],
      "stateMutability": "view",
      "type": "function"
    },
    {
      "inputs": [
        {
          "internalType": "address",
          "name": "owner",
          "type": "address"
        },
        {
          "internalType": "address",
          "name": "operator",
          "type": "address"
        }
      ],
      "name": "isApprovedForAll",
      "outputs": [
        {
          "internalType": "bool",
          "name": "",
          "type": "bool"
        }
      ],
      "stateMutability": "view",
      "type": "function"
    },
    {
      "inputs": [],
      "name": "isSoulbound",
      "outputs": [
        {
          "internalType": "bool",
          "name": "",
          "type": "bool"
        }
      ],
      "stateMutability": "view",
      "type": "function"
    },
    {
      "inputs": [],
      "name": "issuerRegistry",
      "outputs": [
        {
          "internalType": "contract IIssuerRegistry",
          "name": "",
          "type": "address"
        }
      ],
      "stateMutability": "view",
      "type": "function"
    },
    {
      "inputs": [
        {
          "internalType": "address",
          "name": "_holder",
          "type": "address"
        },
        {
          "internalType": "string",
          "name": "_skillName",
          "type": "string"
        },
        {
          "internalType": "string",
          "name": "_metadataURI",
          "type": "string"
        },
        {
          "internalType": "string",
          "name": "_metadataHash",
          "type": "string"
        }
      ],
      "name": "mintCredential",
      "outputs": [
        {
          "internalType": "uint256",
          "name": "",
          "type": "uint256"
        }
      ],
      "stateMutability": "nonpayable",
      "type": "function"
    },
    {
      "inputs": [],
      "name": "name",
      "outputs": [
        {
          "internalType": "string",
          "name": "",
          "type": "string"
        }
      ],
      "stateMutability": "view",
      "type": "function"
    },
    {
      "inputs": [
        {
          "internalType": "uint256",
          "name": "tokenId",
          "type": "uint256"
        }
      ],
      "name": "ownerOf",
      "outputs": [
        {
          "internalType": "address",
          "name": "",
          "type": "address"
        }
      ],
      "stateMutability": "view",
      "type": "function"
    },
    {
      "inputs": [
        {
          "internalType": "address",
          "name": "from",
          "type": "address"
        },
        {
          "internalType": "address",
          "name": "to",
          "type": "address"
        },
        {
          "internalType": "uint256",
          "name": "tokenId",
          "type": "uint256"
        }
      ],
      "name": "safeTransferFrom",
      "outputs": [],
      "stateMutability": "nonpayable",
      "type": "function"
    },
    {
      "inputs": [
        {
          "internalType": "address",
          "name": "from",
          "type": "address"
        },
        {
          "internalType": "address",
          "name": "to",
          "type": "address"
        },
        {
          "internalType": "uint256",
          "name": "tokenId",
          "type": "uint256"
        },
        {
          "internalType": "bytes",
          "name": "data",
          "type": "bytes"
        }
      ],
      "name": "safeTransferFrom",
      "outputs": [],
      "stateMutability": "nonpayable",
      "type": "function"
    },
    {
      "inputs": [
        {
          "internalType": "address",
          "name": "operator",
          "type": "address"
        },
        {
          "internalType": "bool",
          "name": "approved",
          "type": "bool"
        }
      ],
      "name": "setApprovalForAll",
      "outputs": [],
      "stateMutability": "nonpayable",
      "type": "function"
    },
    {
      "inputs": [
        {
          "internalType": "bool",
          "name": "_isSoulbound",
          "type": "bool"
        }
      ],
      "name": "setSoulboundStatus",
      "outputs": [],
      "stateMutability": "nonpayable",
      "type": "function"
    },
    {
      "inputs": [
        {
          "internalType": "bytes4",
          "name": "interfaceId",
          "type": "bytes4"
        }
      ],
      "name": "supportsInterface",
      "outputs": [
        {
          "internalType": "bool",
          "name": "",
          "type": "bool"
        }
      ],
      "stateMutability": "view",
      "type": "function"
    },
    {
      "inputs": [],
      "name": "symbol",
      "outputs": [
        {
          "internalType": "string",
          "name": "",
          "type": "string"
        }
      ],
      "stateMutability": "view",
      "type": "function"
    },
    {
      "inputs": [
        {
          "internalType": "uint256",
          "name": "tokenId",
          "type": "uint256"
        }
      ],
      "name": "tokenURI",
      "outputs": [
        {
          "internalType": "string",
          "name": "",
          "type": "string"
        }
      ],
      "stateMutability": "view",
      "type": "function"
    },
    {
      "inputs": [],
      "name": "totalSupply",
      "outputs": [
        {
          "internalType": "uint256",
          "name": "",
          "type": "uint256"
        }
      ],
      "stateMutability": "view",
      "type": "function"
    },
    {
      "inputs": [
        {
          "internalType": "address",
          "name": "from",
          "type": "address"
        },
        {
          "internalType": "address",
          "name": "to",
          "type": "address"
        },
        {
          "internalType": "uint256",
          "name": "tokenId",
          "type": "uint256"
        }
      ],
      "name": "transferFrom",
      "outputs": [],
      "stateMutability": "nonpayable",
      "type": "function"
    },
    {
      "inputs": [
        {
          "internalType": "uint256",
          "name": "_tokenId",
          "type": "uint256"
        }
      ],
      "name": "verifyCredentialIssuer",
      "outputs": [
        {
          "internalType": "address",
          "name": "",
          "type": "address"
        }
      ],
      "stateMutability": "view",
      "type": "function"
    }
  ],
  "bytecode": "0x608060405234801561000f575f5ffd5b50604051611ff8380380611ff883398101604081905261002e91610137565b6040518060400160405280601581526020017f50726f6f66536b696c6c2043726564656e7469616c0000000000000000000000815250604051806040016040528060068152602001651414d2d2531360d21b815250815f90816100919190610216565b50600161009e8282610216565b5050506001600160a01b0382166101075760405162461bcd60e51b8152602060048201526024808201527f536b696c6c43726564656e7469616c4e46543a20696e76616c696420726567696044820152637374727960e01b606482015260840160405180910390fd5b60088054911515600160a01b026001600160a81b03199092166001600160a01b03909316929092171790556102d0565b5f5f60408385031215610148575f5ffd5b82516001600160a01b038116811461015e575f5ffd5b60208401519092508015158114610173575f5ffd5b809150509250929050565b634e487b7160e01b5f52604160045260245ffd5b600181811c908216806101a657607f821691505b6020821081036101c457634e487b7160e01b5f52602260045260245ffd5b50919050565b601f82111561021157805f5260205f20601f840160051c810160208510156101ef5750805b601f840160051c820191505b8181101561020e575f81556001016101fb565b50505b505050565b81516001600160401b0381111561022f5761022f61017e565b6102438161023d8454610192565b846101ca565b6020601f821160018114610275575f831561025e5750848201515b5f19600385901b1c1916600184901b17845561020e565b5f84815260208120601f198516915b828110156102a45787850151825560209485019460019092019101610284565b50848210156102c157868401515f19600387901b60f8161c191681555b50505050600190811b01905550565b611d1b806102dd5f395ff3fe608060405234801561000f575f5ffd5b5060043610610148575f3560e01c806370a08231116100bf578063b2ec64fd11610079578063b2ec64fd146102ce578063b88d4fde146102e1578063c87b56dd146102f4578063e0574e3f14610307578063e985e9c51461032a578063f7eca6d01461033d575f5ffd5b806370a082311461024d5780638bfc1851146102605780638d184432146102735780638dd18d2d1461029357806395d89b41146102b3578063a22cb465146102bb575f5ffd5b806318160ddd1161011057806318160ddd146101dc5780631e48169d146101ee57806323b872dd146102015780634199e0281461021457806342842e0e146102275780636352211e1461023a575f5ffd5b806301ffc9a71461014c57806306fdde0314610174578063081812fc14610189578063095ea7b3146101b45780630c692e5b146101c9575b5f5ffd5b61015f61015a36600461165b565b610351565b60405190151581526020015b60405180910390f35b61017c610361565b60405161016b91906116a4565b61019c6101973660046116b6565b6103f0565b6040516001600160a01b03909116815260200161016b565b6101c76101c23660046116e8565b610417565b005b61019c6101d73660046116b6565b610426565b6007545b60405190815260200161016b565b6101e06101fc3660046116e8565b610480565b6101c761020f366004611710565b6104ab565b6101c7610222366004611757565b610534565b6101c7610235366004611710565b61058c565b61019c6102483660046116b6565b6105ab565b6101e061025b366004611772565b6105b5565b60085461019c906001600160a01b031681565b610286610281366004611772565b6105fa565b60405161016b919061178b565b6102a66102a13660046116b6565b610663565b60405161016b91906117cd565b61017c610827565b6101c76102c9366004611821565b610836565b6101e06102dc3660046118ff565b610841565b6101c76102ef36600461199e565b610b00565b61017c6103023660046116b6565b610b18565b61031a6103153660046116b6565b610b23565b60405161016b9493929190611a09565b61015f610338366004611a4e565b610c64565b60085461015f90600160a01b900460ff1681565b5f61035b82610c91565b92915050565b60605f805461036f90611a7f565b80601f016020809104026020016040519081016040528092919081815260200182805461039b90611a7f565b80156103e65780601f106103bd576101008083540402835291602001916103e6565b820191905f5260205f20905b8154815290600101906020018083116103c957829003601f168201915b5050505050905090565b5f6103fa82610cb5565b505f828152600460205260409020546001600160a01b031661035b565b610422828233610ced565b5050565b5f818152600260205260408120546001600160a01b03166104625760405162461bcd60e51b815260040161045990611ab7565b60405180910390fd5b505f908152600960205260409020600101546001600160a01b031690565b600a602052815f5260405f208181548110610499575f80fd5b905f5260205f20015f91509150505481565b6001600160a01b0382166104d457604051633250574960e11b81525f6004820152602401610459565b5f6104e0838333610cfa565b9050836001600160a01b0316816001600160a01b03161461052e576040516364283d7b60e01b81526001600160a01b0380861660048301526024820184905282166044820152606401610459565b50505050565b60088054821515600160a01b0260ff60a01b199091161790556040517f6135f58676f4d19576a902a5cf24a95b19e08c622ee5717ed84e49f16883350b9061058190831515815260200190565b60405180910390a150565b6105a683838360405180602001604052805f815250610b00565b505050565b5f61035b82610cb5565b5f6001600160a01b0382166105df576040516322718ad960e21b81525f6004820152602401610459565b506001600160a01b03165f9081526003602052604090205490565b6001600160a01b0381165f908152600a602090815260409182902080548351818402810184019094528084526060939283018282801561065757602002820191905f5260205f20905b815481526020019060010190808311610643575b50505050509050919050565b6106956040518060800160405280606081526020015f6001600160a01b031681526020015f8152602001606081525090565b5f828152600260205260409020546001600160a01b03166106c85760405162461bcd60e51b815260040161045990611ab7565b5f82815260096020526040908190208151608081019092528054829082906106ef90611a7f565b80601f016020809104026020016040519081016040528092919081815260200182805461071b90611a7f565b80156107665780601f1061073d57610100808354040283529160200191610766565b820191905f5260205f20905b81548152906001019060200180831161074957829003601f168201915b505050918352505060018201546001600160a01b03166020820152600282015460408201526003820180546060909201916107a090611a7f565b80601f01602080910402602001604051908101604052809291908181526020018280546107cc90611a7f565b80156108175780601f106107ee57610100808354040283529160200191610817565b820191905f5260205f20905b8154815290600101906020018083116107fa57829003601f168201915b5050505050815250509050919050565b60606001805461036f90611a7f565b610422338383610db0565b600854604051631fadd2ff60e21b81523360048201525f916001600160a01b031690637eb74bfc90602401602060405180830381865afa158015610887573d5f5f3e3d5ffd5b505050506040513d601f19601f820116820180604052508101906108ab9190611b04565b6109145760405162461bcd60e51b815260206004820152603460248201527f536b696c6c43726564656e7469616c4e46543a2063616c6c6572206973206e6f6044820152733a1030b71030b8383937bb32b21034b9b9bab2b960611b6064820152608401610459565b6001600160a01b03851661097d5760405162461bcd60e51b815260206004820152602a60248201527f536b696c6c43726564656e7469616c4e46543a20696e76616c696420686f6c646044820152696572206164647265737360b01b6064820152608401610459565b5f8451116109dd5760405162461bcd60e51b815260206004820152602760248201527f536b696c6c43726564656e7469616c4e46543a20736b696c6c206e616d652072604482015266195c5d5a5c995960ca1b6064820152608401610459565b600780549081905f6109ee83611b1f565b91905055506109fd8682610e4e565b610a078185610e67565b60408051608081018252868152336020808301919091524282840152606082018690525f84815260099091529190912081518190610a459082611b87565b5060208201516001820180546001600160a01b0319166001600160a01b039092169190911790556040820151600282015560608201516003820190610a8a9082611b87565b5050506001600160a01b0386165f818152600a60209081526040808320805460018101825590845291909220018390555133919083907fc5901802e15558d071506111870716b63e4aae0cd8b6bfe19c8c1e6fd158857390610aef908a904290611c42565b60405180910390a495945050505050565b610b0b8484846104ab565b61052e3385858585610eb6565b606061035b82610fde565b60096020525f9081526040902080548190610b3d90611a7f565b80601f0160208091040260200160405190810160405280929190818152602001828054610b6990611a7f565b8015610bb45780601f10610b8b57610100808354040283529160200191610bb4565b820191905f5260205f20905b815481529060010190602001808311610b9757829003601f168201915b505050506001830154600284015460038501805494956001600160a01b039093169491935090610be390611a7f565b80601f0160208091040260200160405190810160405280929190818152602001828054610c0f90611a7f565b8015610c5a5780601f10610c3157610100808354040283529160200191610c5a565b820191905f5260205f20905b815481529060010190602001808311610c3d57829003601f168201915b5050505050905084565b6001600160a01b039182165f90815260056020908152604080832093909416825291909152205460ff1690565b5f6001600160e01b03198216632483248360e11b148061035b575061035b826110e9565b5f818152600260205260408120546001600160a01b03168061035b57604051637e27328960e01b815260048101849052602401610459565b6105a68383836001611138565b5f828152600260205260408120546001600160a01b03168015801590610d295750600854600160a01b900460ff165b15610d9c5760405162461bcd60e51b815260206004820152603a60248201527f536b696c6c43726564656e7469616c4e46543a20536f756c626f756e6420746f60448201527f6b656e732063616e6e6f74206265207472616e736665727265640000000000006064820152608401610459565b610da785858561123c565b95945050505050565b6001600160a01b038216610de257604051630b61174360e31b81526001600160a01b0383166004820152602401610459565b6001600160a01b038381165f81815260056020908152604080832094871680845294825291829020805460ff191686151590811790915591519182527f17307eab39ab6107e8899845ad3d59bd9653f200f220920489ca2b5937696c31910160405180910390a3505050565b610422828260405180602001604052805f81525061132e565b5f828152600660205260409020610e7e8282611b87565b506040518281527ff8e1a15aba9398e019f0b49df1a4fde98ee17ae345cb5f6b5e2c27f5033e8ce79060200160405180910390a15050565b6001600160a01b0383163b15610fd757604051630a85bd0160e11b81526001600160a01b0384169063150b7a0290610ef8908890889087908790600401611c63565b6020604051808303815f875af1925050508015610f32575060408051601f3d908101601f19168201909252610f2f91810190611c9f565b60015b610f99573d808015610f5f576040519150601f19603f3d011682016040523d82523d5f602084013e610f64565b606091505b5080515f03610f9157604051633250574960e11b81526001600160a01b0385166004820152602401610459565b805160208201fd5b6001600160e01b03198116630a85bd0160e11b14610fd557604051633250574960e11b81526001600160a01b0385166004820152602401610459565b505b5050505050565b6060610fe982610cb5565b505f828152600660205260408120805461100290611a7f565b80601f016020809104026020016040519081016040528092919081815260200182805461102e90611a7f565b80156110795780601f1061105057610100808354040283529160200191611079565b820191905f5260205f20905b81548152906001019060200180831161105c57829003601f168201915b505050505090505f61109560408051602081019091525f815290565b905080515f036110a6575092915050565b8151156110d85780826040516020016110c0929190611cd1565b60405160208183030381529060405292505050919050565b6110e184611345565b949350505050565b5f6001600160e01b031982166380ac58cd60e01b148061111957506001600160e01b03198216635b5e139f60e01b145b8061035b57506301ffc9a760e01b6001600160e01b031983161461035b565b808061114c57506001600160a01b03821615155b1561120d575f61115b84610cb5565b90506001600160a01b038316158015906111875750826001600160a01b0316816001600160a01b031614155b801561119a57506111988184610c64565b155b156111c35760405163a9fbf51f60e01b81526001600160a01b0384166004820152602401610459565b811561120b5783856001600160a01b0316826001600160a01b03167f8c5be1e5ebec7d5bd14f71427d1e84f3dd0314c0f7b2291e5b200ac8c7c3b92560405160405180910390a45b505b50505f90815260046020526040902080546001600160a01b0319166001600160a01b0392909216919091179055565b5f828152600260205260408120546001600160a01b0390811690831615611268576112688184866113b6565b6001600160a01b038116156112a2576112835f855f5f611138565b6001600160a01b0381165f90815260036020526040902080545f190190555b6001600160a01b038516156112d0576001600160a01b0385165f908152600360205260409020805460010190555b5f8481526002602052604080822080546001600160a01b0319166001600160a01b0389811691821790925591518793918516917fddf252ad1be2c89b69c2b068fc378daa952ba7f163c4a11628f55a4df523b3ef91a4949350505050565b611338838361141a565b6105a6335f858585610eb6565b606061135082610cb5565b505f61136660408051602081019091525f815290565b90505f8151116113845760405180602001604052805f8152506113af565b8061138e8461147b565b60405160200161139f929190611cd1565b6040516020818303038152906040525b9392505050565b6113c183838361150b565b6105a6576001600160a01b0383166113ef57604051637e27328960e01b815260048101829052602401610459565b60405163177e802f60e01b81526001600160a01b038316600482015260248101829052604401610459565b6001600160a01b03821661144357604051633250574960e11b81525f6004820152602401610459565b5f61144f83835f610cfa565b90506001600160a01b038116156105a6576040516339e3563760e11b81525f6004820152602401610459565b60605f6114878361156c565b60010190505f8167ffffffffffffffff8111156114a6576114a6611856565b6040519080825280601f01601f1916602001820160405280156114d0576020820181803683370190505b5090508181016020015b5f19016f181899199a1a9b1b9c1cb0b131b232b360811b600a86061a8153600a85049450846114da57509392505050565b5f6001600160a01b038316158015906110e15750826001600160a01b0316846001600160a01b0316148061154457506115448484610c64565b806110e15750505f908152600460205260409020546001600160a01b03908116911614919050565b5f8072184f03e93ff9f4daa797ed6e38ed64bf6a1f0160401b83106115aa5772184f03e93ff9f4daa797ed6e38ed64bf6a1f0160401b830492506040015b6d04ee2d6d415b85acef810000000083106115d6576d04ee2d6d415b85acef8100000000830492506020015b662386f26fc1000083106115f457662386f26fc10000830492506010015b6305f5e100831061160c576305f5e100830492506008015b612710831061162057612710830492506004015b60648310611632576064830492506002015b600a831061035b5760010192915050565b6001600160e01b031981168114611658575f5ffd5b50565b5f6020828403121561166b575f5ffd5b81356113af81611643565b5f81518084528060208401602086015e5f602082860101526020601f19601f83011685010191505092915050565b602081525f6113af6020830184611676565b5f602082840312156116c6575f5ffd5b5035919050565b80356001600160a01b03811681146116e3575f5ffd5b919050565b5f5f604083850312156116f9575f5ffd5b611702836116cd565b946020939093013593505050565b5f5f5f60608486031215611722575f5ffd5b61172b846116cd565b9250611739602085016116cd565b929592945050506040919091013590565b8015158114611658575f5ffd5b5f60208284031215611767575f5ffd5b81356113af8161174a565b5f60208284031215611782575f5ffd5b6113af826116cd565b602080825282518282018190525f918401906040840190835b818110156117c25783518352602093840193909201916001016117a4565b509095945050505050565b602081525f8251608060208401526117e860a0840182611676565b905060018060a01b036020850151166040840152604084015160608401526060840151601f19848303016080850152610da78282611676565b5f5f60408385031215611832575f5ffd5b61183b836116cd565b9150602083013561184b8161174a565b809150509250929050565b634e487b7160e01b5f52604160045260245ffd5b5f5f67ffffffffffffffff84111561188457611884611856565b50604051601f19601f85018116603f0116810181811067ffffffffffffffff821117156118b3576118b3611856565b6040528381529050808284018510156118ca575f5ffd5b838360208301375f60208583010152509392505050565b5f82601f8301126118f0575f5ffd5b6113af8383356020850161186a565b5f5f5f5f60808587031215611912575f5ffd5b61191b856116cd565b9350602085013567ffffffffffffffff811115611936575f5ffd5b611942878288016118e1565b935050604085013567ffffffffffffffff81111561195e575f5ffd5b61196a878288016118e1565b925050606085013567ffffffffffffffff811115611986575f5ffd5b611992878288016118e1565b91505092959194509250565b5f5f5f5f608085870312156119b1575f5ffd5b6119ba856116cd565b93506119c8602086016116cd565b925060408501359150606085013567ffffffffffffffff8111156119ea575f5ffd5b8501601f810187136119fa575f5ffd5b6119928782356020840161186a565b608081525f611a1b6080830187611676565b6001600160a01b0386166020840152604083018590528281036060840152611a438185611676565b979650505050505050565b5f5f60408385031215611a5f575f5ffd5b611a68836116cd565b9150611a76602084016116cd565b90509250929050565b600181811c90821680611a9357607f821691505b602082108103611ab157634e487b7160e01b5f52602260045260245ffd5b50919050565b6020808252602d908201527f536b696c6c43726564656e7469616c4e46543a2063726564656e7469616c206460408201526c1bd95cc81b9bdd08195e1a5cdd609a1b606082015260800190565b5f60208284031215611b14575f5ffd5b81516113af8161174a565b5f60018201611b3c57634e487b7160e01b5f52601160045260245ffd5b5060010190565b601f8211156105a657805f5260205f20601f840160051c81016020851015611b685750805b601f840160051c820191505b81811015610fd7575f8155600101611b74565b815167ffffffffffffffff811115611ba157611ba1611856565b611bb581611baf8454611a7f565b84611b43565b6020601f821160018114611be7575f8315611bd05750848201515b5f19600385901b1c1916600184901b178455610fd7565b5f84815260208120601f198516915b82811015611c165787850151825560209485019460019092019101611bf6565b5084821015611c3357868401515f19600387901b60f8161c191681555b50505050600190811b01905550565b604081525f611c546040830185611676565b90508260208301529392505050565b6001600160a01b03858116825284166020820152604081018390526080606082018190525f90611c9590830184611676565b9695505050505050565b5f60208284031215611caf575f5ffd5b81516113af81611643565b5f81518060208401855e5f93019283525090919050565b5f6110e1611cdf8386611cba565b84611cba56fea2646970667358221220ff6acdf5a7cffb6494146528c4f561555d22c222e4229ea2895fb21971d1333264736f6c634300081c0033",
  "linkReferences": {},
  "deployedLinkReferences": {},
  "immutableReferences": {},
  "inputSourceName": "project/contracts/SkillCredentialNFT.sol",
  "buildInfoId": "solc-0_8_28-df45c295456d6ff74f52977452db63dcb518eba5"
}