{
  "_format": "hh3-artifact-1",
  "contractName": "IssuerRegistry",
  "sourceName": "contracts/IssuerRegistry.sol",
  "abi": [
    {
      "inputs": [],
      "stateMutability": "nonpayable",
      "type": "constructor"
    },
    {
      "anonymous": false,
      "inputs": [
        {
          "indexed": true,
          "internalType": "address",
          "name": "previousAdmin",
          "type": "address"
        },
        {
          "indexed": true,
          "internalType": "address",
          "name": "newAdmin",
          "type": "address"
        }
      ],
      "name": "AdminTransferred",
      "type": "event"
    },
    {
      "anonymous": false,
      "inputs": [
        {
          "indexed": true,
          "internalType": "address",
          "name": "issuer",
          "type": "address"
        },
        {
          "indexed": false,
          "internalType": "uint256",
          "name": "timestamp",
          "type": "uint256"
        }
      ],
      "name": "IssuerAdded",
      "type": "event"
    },
    {
      "anonymous": false,
      "inputs": [
        {
          "indexed": true,
          "internalType": "address",
          "name": "issuer",
          "type": "address"
        },
        {
          "indexed": false,
          "internalType": "uint256",
          "name": "timestamp",
          "type": "uint256"
        }
      ],
      "name": "IssuerRemoved",
      "type": "event"
    },
    {
      "inputs": [
        {
          "internalType": "address",
          "name": "_issuer",
          "type": "address"
        }
      ],
      "name": "addIssuer",
      "outputs": [],
      "stateMutability": "nonpayable",
      "type": "function"
    },
    {
      "inputs": [],
      "name": "admin",
      "outputs": [
        {
          "internalType": "address",
          "name": "",
          "type": "address"
        }
      ],
      "stateMutability": "view",
      "type": "function"
    },
    {
      "inputs": [],
      "name": "getAdmin",
      "outputs": [
        {
          "internalType": "address",
          "name": "",
          "type": "address"
        }
      ],
      "stateMutability": "view",
      "type": "function"
    },
    {
      "inputs": [
        {
          "internalType": "address",
          "name": "_issuer",
          "type": "address"
        }
      ],
      "name": "isApprovedIssuer",
      "outputs": [
        {
          "internalType": "bool",
          "name": "",
          "type": "bool"
        }
      ],
      "stateMutability": "view",
      "type": "function"
    },
    {
      "inputs": [
        {
          "internalType": "address",
          "name": "",
          "type": "address"
        }
      ],
      "name": "issuers",
      "outputs": [
        {
          "internalType": "bool",
          "name": "",
          "type": "bool"
        }
      ],
      "stateMutability": "view",
      "type": "function"
    },
    {
      "inputs": [
        {
          "internalType": "address",
          "name": "_issuer",
          "type": "address"
        }
      ],
      "name": "removeIssuer",
      "outputs": [],
      "stateMutability": "nonpayable",
      "type": "function"
    },
    {
      "inputs": [
        {
          "internalType": "address",
          "name": "_newAdmin",
          "type": "address"
        }
      ],
      "name": "transferAdmin",
      "outputs": [],
      "stateMutability": "nonpayable",
      "type": "function"
    }
  ],
  "bytecode": "0x6080604052348015600e575f5ffd5b505f80546001600160a01b0319163390811782556040519091907ff8ccb027dfcd135e000e9d45e6cc2d662578a8825d4c45b5e32e0adf67e79ec6908290a36105d88061005a5f395ff3fe608060405234801561000f575f5ffd5b506004361061007a575f3560e01c80636e9960c3116100585780636e9960c3146100dd57806375829def146101015780637eb74bfc14610114578063f851a4401461013f575f5ffd5b806320694db01461007e57806338a7543e1461009357806347bc7093146100ca575b5f5ffd5b61009161008c3660046104fb565b610151565b005b6100b56100a13660046104fb565b60016020525f908152604090205460ff1681565b60405190151581526020015b60405180910390f35b6100916100d83660046104fb565b6102e8565b5f546001600160a01b03165b6040516001600160a01b0390911681526020016100c1565b61009161010f3660046104fb565b6103fe565b6100b56101223660046104fb565b6001600160a01b03165f9081526001602052604090205460ff1690565b5f546100e9906001600160a01b031681565b5f546001600160a01b031633146101835760405162461bcd60e51b815260040161017a90610528565b60405180910390fd5b806001600160a01b0381166101aa5760405162461bcd60e51b815260040161017a9061056b565b6001600160a01b0382165f9081526001602052604090205460ff16156102205760405162461bcd60e51b815260206004820152602560248201527f49737375657252656769737472793a2069737375657220616c72656164792065604482015264786973747360d81b606482015260840161017a565b5f546001600160a01b039081169083160361028c5760405162461bcd60e51b815260206004820152602660248201527f49737375657252656769737472793a2061646d696e2063616e6e6f742062652060448201526534b9b9bab2b960d11b606482015260840161017a565b6001600160a01b0382165f81815260016020818152604092839020805460ff191690921790915590514281527fea842a2b6823857e396ea6c2fd3f183cea865db42bdb336d20ac5e64bee7e26c91015b60405180910390a25050565b5f546001600160a01b031633146103115760405162461bcd60e51b815260040161017a90610528565b806001600160a01b0381166103385760405162461bcd60e51b815260040161017a9061056b565b6001600160a01b0382165f9081526001602052604090205460ff166103ad5760405162461bcd60e51b815260206004820152602560248201527f49737375657252656769737472793a2069737375657220646f6573206e6f7420604482015264195e1a5cdd60da1b606482015260840161017a565b6001600160a01b0382165f8181526001602052604090819020805460ff19169055517f7d646dfe52f77b8ef31868b9cddadbd17ee190aba7615b1c4c456bf6e5f5a2da906102dc9042815260200190565b5f546001600160a01b031633146104275760405162461bcd60e51b815260040161017a90610528565b806001600160a01b03811661044e5760405162461bcd60e51b815260040161017a9061056b565b5f546001600160a01b03908116908316036104ab5760405162461bcd60e51b815260206004820152601d60248201527f49737375657252656769737472793a20616c72656164792061646d696e000000604482015260640161017a565b5f80546001600160a01b038481166001600160a01b0319831681178455604051919092169283917ff8ccb027dfcd135e000e9d45e6cc2d662578a8825d4c45b5e32e0adf67e79ec69190a3505050565b5f6020828403121561050b575f5ffd5b81356001600160a01b0381168114610521575f5ffd5b9392505050565b60208082526023908201527f49737375657252656769737472793a2063616c6c6572206973206e6f7420616460408201526236b4b760e91b606082015260800190565b6020808252601f908201527f49737375657252656769737472793a20696e76616c696420616464726573730060408201526060019056fea2646970667358221220a22acb765876f5241be127f6d0ce0615496b5ba3c612eea9aa43d4f13446ba3864736f6c634300081c0033",
  "linkReferences": {},
  "deployedLinkReferences": {},
  "immutableReferences": {},
  "inputSourceName": "project/contracts/IssuerRegistry.sol",
  "buildInfoId": "solc-0_8_28-249246875a9395fc2fc154b6dca36b63904c3c7e"
}